:020000020000FC
:0200000033C00B
:0200040066C0D4
:020008006EC0C8
:02002C0096C07C
:1000680008E00EBF0FEF0DBF0FE304B9002705B975
:1000780000E30AB904E00BB903E007B908B940E0A6
:1000880050E066270027009380000DE00093810070
:100098000DE30093890008E00093880002E00093D4
:1000A8006F000EE00093690003E00DBB78944B9B52
:1000B8006E7F503021F4403011F45C9804C060FF2A
:1000C8005C9A60FD5C981BD0F2CF0F930FB70F932B
:1000D800616050E040E00F910FBF0F9118950F93AA
:1000E8000FB70F9360FD07C051E045E0002700936C
:1000F8008500009384000F910FBF0F9118954098C9
:100108004198042F1FD0002D0F7305B906FC5D9A86
:1001180006FE5D98419A0ED04198052F13D0002D08
:100128000F7305B906FC5D9A06FE5D98409A02D0E9
:100138004098089522E338EC00003A95E9F72A95AB
:10014800D1F70895F1E0EAE8E00F08F4F395049098
:1001580008950F930FB70F9360FD05C04B9B03C025
:1001680051E045E00AC0503011F4403031F04030E1
:1001780019F45A9549E001C04A950F910FBF0F91A4
:0C01880018953F065B4F666D7D077F6F8A
:00000001FF
